:100000000C944C080C9493080C9493080C9493084B
:100010000C9493080C9493080C9493080C949308F4
:100020000C9493080C9493080C946F230C94422422
:100030000C947D1A0C9493080C9493080C949308D8
:100040000C9493080C9493080C9493080C949308C4
:100050000C9493080C94DE1A0C9493080C94930857
:100060000C9493080C9493080C9493080C949308A4
:100070000C9493080C9493080C9493080C94930894
:100080000C9493080C9493080C9493080C94930884
:100090000C9493080C9493080C9493080C94930874
:1000A0000C9493080C9493080C94930829003A003C
:1000B0003B003C003D003E003F004000410042004C
:1000C0004300440045002700270000000000000016
:1000D00000001E001F002000210022002300240039
:1000E00025002600270027002700270000002A00FF
:1000F0002700380025022D002B00000014001A00F4
:100100000800150017001C0018000C001200130056
:100110002700270027004A0027004B000000390075
:10012000000004001600070009000A000B000D0083
:100130000E000F00270027002800000027002200E3
:1001400027002E020000E1001D001B000600190020
:10015000050011001000000027002700E100270023
:1001600027004D0027004E000000E000E3000000E3
:10017000E20000002C00000000002C00000027001E
:10018000E00027002700270000000070270028005B
:100190000100010001000100010001000100010057
:1001A0000100010001000100010001000100000048
:1001B000000000000000010001000100010001003A
:1001C0000100010001000100010001000100010027
:1001D0000000010001000100010001000100000019
:1001E0000100010001000100010001000100010007
:1001F00001000100010001000100010001000100F7
:1002000000000100000001000100010001000100E8
:1002100001000100010001000100010001000000D7
:1002200001000100010001000000010001000100C7
:1002300001000100010001000100010001000100B6
:1002400001000100010001000100010000000100A7
:10025000010000000100000001000000000001009A
:100260000000010001000100010001000000010088
:100270000100010001000100010001000100010076
:100280000100010001000100010001000100010066
:10029000010000000000000000000100010001005A
:1002A0000100010001000100010001000100010046
:1002B0000100010000000100010001000100010037
:1002C0000100000001000100010001000100010027
:1002D0000100010001000100010001000100010016
:1002E0000100010000000100000001000100010008
:1002F00001000100010001000100010001000100F6
:1003000001000000010001000100010000000100E7
:1003100001000100010001000100010001000100D5
:1003200001000100010001000100010001000100C5
:1003300000000100010000000100000001000000B9
:1003400000000100000001000100010001000100A7
:100350000000010001000100010001000100010096
:100360000100010001000100010001000100010085
:100370000100010001000000000000000000010079
:100380000100010001000100010001000100010065
:100390000100010001000100000001000100010056
:1003A0000100010001000000010001000100010046
:1003B0000100010001000100010001000100010035
:1003C0000100010001000100000001000000010027
:1003D0000100010001000100010001000100010015
:1003E0000100010001000000010001000100010006
:1003F00000000100010001000100010001000100F6
:1004000001000100010001000100010001000100E4
:1004100001000100000001000100000001000000D7
:1004200001000000000001000000010001000100C7
:1004300001000100000001000100010001000100B5
:1004400001000100010001000100010001000100A4
:100450000100010001000100010000000000000097
:100460000000010001000100010001000100010085
:100470000100010001000100010001000000010075
:100480000100010001000100010000000100010065
:100490000100010001000100010001000100010054
:1004A0000100010001000100010001000000010045
:1004B0000000010001000100010001000100010035
:1004C0000100010001000100010000000100010025
:1004D0000100010000000100010001000100010015
:1004E0000100010001000100010001000100010004
:1004F00001000100010001000000010001000000F6
:1005000001000000010000000000010000000100E7
:1005100001000100010001000000010001000100D4
:1005200001000100010001000100010001000100C3
:1005300001000100010001000100010001000000B4
:1005400000000000000001000100010001000100A6
:100550000100010001000100010001000100010093
:100560000000010001000100010001000100000085
:100570000100010001000100010001000100010073
:100580000100010001000100010001000100010063
:100590000000010000000100010001000100010055
:1005A0000100010001000100010001000100000044
:1005B0000100010001000100000001000100010034
:1005C0000100010001000100010001000100010023
:1005D0000100010001000100010001000000010014
:1005E0000100000001000000010000000000010007
:1005F00000000100010001000100010000000100F5
:1006000001000100010001000100010001000100E2
:1006100001000100010001000100010001000100D2
:1006200001000000000000000000010001000100C6
:1006300001000100010001000100010001000100B2
:1006400001000100000001000100010001000100A3
:100650000100000001000100010001000100010093
:100660000100010001000100010001000100010082
:100670000100010000000100000001000100010074
:100680000100010001000100010001000100010062
:100690000100000001000100010001000000010054
:1006A0000100010001000100010001000100010042
:1006B0000100010001000100010001000100010032
:1006C0000000010001000000010000000100000026
:1006D0000000010000000100010001000100010014
:1006E0000000010001000100010001000100010003
:1006F00001000100010001000100010001000100F2
:1007000001000100010000000000000000000100E5
:1007100001000100010001000100010001000100D1
:1007200001000100010001000000010001000100C2
:1007300001000100010000000100010001000100B2
:1007400001000100010001000100010001000100A1
:100750000100010001000100000001000000010093
:100760000100010001000100010001000100010081
:100770000100010001000000010001000100010072
:100780000000010001000100010001000100010062
:100790000100010001000100010001000100010051
:1007A0000100010000000100010000000100000044
:1007B0000100000000000100000001000100010034
:1007C0000100010000000100010001000100010022
:1007D0000100010001000100010001000100010011
:1007E0000100010001000100010000000000000004
:1007F00000000100010001000100010001000100F2
:1008000001000100010001000100010000000100E1
:1008100001000100010001000100000001000100D1
:1008200001000100010001000100010001000100C0
:1008300001000100010001000100010000000100B1
:1008400000000100010001000100010001000100A1
:100850000100010001000100010000000100010091
:100860000100010000000100010001000100010081
:100870000100010001000100010001000100010070
:100880000100010001000100000001000100000062
:100890000100000001000000000001000000010054
:1008A0000100010001000100000001000100010041
:1008B0000100010001000100010001000100010030
:1008C0000100010001000100010001000100000021
:1008D0000000000000000100010001000100010013
:1008E0000100010001000100010001000100010000
:1008F00000000100010001000100010001000000F2
:1009000001000100010001000100010001000100DF
:1009100001000100010001000100010001000100CF
:1009200000000100000001000100010001000100C1
:1009300001000100010001000100010001000000B0
:1009400001000100010001000000010001000100A0
:10095000010001000100010001000100010001008F
:100960000100010001000100010001000000010080
:100970000100000001000000010000000000010073
:100980000000010001000100010001000000010061
:10099000010001000100010001000100010001004F
:1009A000010001000100010001000100010001003F
:1009B0000100000000000000000001000100010033
:1009C000010001000100010001000100010001001F
:1009D0000100010000000100010001000100010010
:1009E0000100000001000100010001000100010000
:1009F00001000100010001000100010001000100EF
:100A000001000100000001000000010001000100E0
:100A100001000100010001000100010001000100CE
:100A200001000000010001000100010000000100C0
:100A300001000100010001000100010001000100AE
:100A4000010001000100010001000100010001009E
:100A50000000010001000000010000000100000092
:100A60000000010000000100010001000100010080
:100A7000000001000100010001000100010001006F
:100A8000010001000100010001000100010001005E
:100A90000100010001000000000000000000010052
:100AA000010001000100010001000100010001003E
:100AB000010001000100010000000100010001002F
:100AC000010001000100000001000100010001001F
:100AD000010001000100010001000100010001000E
:100AE0000100010001000100000001000000010000
:100AF00001000100010001000100010001000100EE
:100B000001000100010000000100010001000100DE
:100B100000000100010001000100010001000100CE
:100B200001000100010001000100010001000100BD
:100B300001000100000001000100000001000000B0
:100B400001000000000001000000010001000100A0
:100B5000010001000000010001000100010001008E
:100B6000010001000100010001000100010001007D
:100B70000100010001000100010000000000000070
:100B8000000001000100010001000100010001005E
:100B9000010001000100010001000100000001004E
:100BA000010001000100010001000000010001003E
:100BB000010001000100010001000100010001002D
:100BC000010001000100010001000100000001001E
:100BD000000001000100010001000100010001000E
:100BE00001000100010001000100000001000100FE
:100BF00001000100000001000100010001000100EE
:100C000001000100010001000100010001000100DC
:100C100001000100010001000000010001000000CE
:100C200001000000010000000000010000000100C0
:100C300001000100010001000000010001000100AD
:100C4000010001000100010001000100010001009C
:100C5000010001000100010001000100010000008D
:100C6000000000000000010001000100010001007F
:100C7000010001000100010001000100010001006C
:100C8000000001000100010001000100010000005E
:100C9000010001000100010001000100010001004C
:100CA000010001000100010001000100010001003C
:100CB000000001000000010001000100010001002E
:100CC000010001000100010001000100010000001D
:100CD000010001000100010000000100010001000D
:100CE00001000100010001000100010001000100FC
:100CF00001000100010001000100010000000100ED
:100D000001000000010000000100000000000100DF
:100D100000000100010001000100010000000100CD
:100D200001000100010001000100010001000100BB
:100D300001000100010001000100010001000100AB
:100D4000010000000000000000000100010001009F
:100D5000010001000100010001000100010001008B
:100D6000010001000000010001000100010001007C
:100D7000010000000100010001000100010001006C
:100D8000010001000100010001000100010001005B
:100D9000010001000000010000000100010001004D
:100DA000010001000100010001000100010001003B
:100DB000010000000100010001000100000001002D
:100DC000010001000100010001000100010001001B
:100DD000010001000100010001000100010001000B
:100DE00000000100010000000100000001000000FF
:100DF00000000100000001000100010001000100ED
:100E000000000100010001000100010001000100DB
:100E100001000100010001000100010001000100CA
:100E200001000100010000000000000000000100BE
:100E300001000100010001000100010001000100AA
:100E4000010001000100010000000100010001009B
:100E5000010001000100000001000100010001008B
:100E6000010001000100010001000100010001007A
:100E7000010001000100010000000100000001006C
:100E8000010001000100010001000100010001005A
:100E9000010001000100000001000100010001004B
:100EA000000001000100010001000100010001003B
:100EB000010001000100010001000100010001002A
:100EC000010001000000010001000000010000001D
:100ED000010000000000010000000100010001000D
:100EE00001000100000001000100010012036B007D
:100EF0006500790062006F0061007200640000000C
:100F0000160371006D006B006200750069006C00D3
:100F100064006500720000000403090409026D000A
:100F2000040100A0FA0904000001030101000921E5
:100F3000110100012240000705810308000A09048D
:100F400001000103010200092111010001224D00ED
:100F50000705820308000A090402000103000000DB
:100F60000921110100012236000705830308000A48
:100F700009040300010300000009211101000122FE
:100F80003900070584032000011201100100000050
:100F900008EDFE606001000102000105010906A1E3
:100FA00001050719E029E71500250195087501815C
:100FB000020508190129059505750191029501752C
:100FC0000391010507190029F71500250195F8750A
:100FD000018102C005010980A101850216010026D8
:100FE00003001A81002A8300751095018100C00555
:100FF0000C0901A1018503160100269C021A0100BB
:101000002A9C02751095018100C005010902A10109
:101010000901A100050919012905150025019505FA
:1010200075018102950175038101050109300931BE
:101030001581257F95027508810609381581257F60
:10104000950175088106050C0A38021581257F95E2
:101050000175088106C0C005010906A1010507192F
:10106000E029E715002501950875018102950175B4
:101070000881010508190129059505750191029559
:1010800001750391010507190029FF150026FF00CE
:10109000950675088100C00011241FBECFEFDAE06D
:1010A000DEBFCDBF04B603FE27C0809195029091AC
:1010B0009602A0919702B09198028730904BA7407A
:1010C000B04BD1F4109295021092960210929702B2
:1010D0001092980214BE84B7877F84BF0FB6F8942D
:1010E000A8958091600088618093600010926000F4
:1010F0000FBEE0E0F8E3099511E0A0E0B1E0EEE515
:10110000FFE402C005900D92A034B107D9F722E0A8
:10111000A0E4B1E001C01D92A539B207E1F70E9439
:10112000C5200C9481270C94000090E080E0089585
:101130000895089581E00895089581E008950C943C
:101140009A080E94BE122FEF84E39CE02150804059
:101150009040E1F700C000000C94011BEF92FF9259
:101160000F931F93CF93DF938C01FC01E080F180FC
:101170008091A401811140C082818823C1F1C701FF
:101180000E944318C82F682FC7010E94EC17B701AF
:101190008C2F0E94E609EC01B8010E949F08882369
:1011A00009F44BC0B801CE010E94EF0B882309F46B
:1011B00044C0C531F0E7DF0720F5C23080E7D8072B
:1011C00008F04DC0C115E0E7DE0791F1C130D0470E
:1011D000E1F181E08093420180934301C801DF91F6
:1011E000CF911F910F91FF90EF900C949D08C70134
:1011F0000E941A18C82FCBCFC7010E944318B7010D
:10120000C8CFCC3380E7D80709F49BC0CD33D04793
:1012100001F7F8018281882309F4BAC010924301D2
:101220000E94AD1A909341018093400180E296C0E4
:10123000F801828181110E94A10880E0DF91CF91A5
:101240001F910F91FF90EF900895F80182818823FC
:10125000A1F380915502816080935502EECFF80191
:101260008281882309F4BACF0E94FE19811102C03D
:101270000E94E4190E941B1A90E0909387028093C9
:101280008602FE01E350F047809186028160E231E0
:10129000F10538F4ED57F84D0C9431278091860212
:1012A000826080938602809186020E941F1A0E94AB
:1012B000BE12C3CF809186028460F3CF80918602F4
:1012C0008860EFCF809186028061EBCF80918602AB
:1012D0008062E7CF809186028064E3CF80918602AE
:1012E0008068DFCF809186028C60DBCF80918602A0
:1012F0008E7FD7CF809186028D7FD3CF809186025B
:101300008B7FCFCF80918602877FCBCF8091860263
:101310008F7EC7CF809186028F7DC3CF809186025A
:101320008F7BBFCF809186028F77BBCF8091860263
:10133000837FB7CF90918602892F97FB87F98058DA
:10134000B0CFF8018281882361F0109242010E949F
:10135000AD1A909341018093400182E00E942310D6
:101360006CCF8091420181110FC08091400190911A
:1013700041010E94B91A883C910530F486E20E942E
:10138000F80E86E20E94D40F82E00E942A1055CF08
:101390008091430181110FC08091400190914101E2
:1013A0000E94B91A883C910530F487E20E94F80E39
:1013B00087E20E94D40F80E2E8CF0C943E0C0C949C
:1013C000400C0C949C080C94E1090895972F70E050
:1013D00023E1929F600D711D1124FB0192E7899F0B
:1013E000E00DF11D1124EE0FFF1FE455FF4F859115
:1013F00094910895FC01EE0FFF1FE451F14F859188
:10140000949108950E94E6090E94730B9C01811536
:1014100040E4940708F097C0211580E3380708F0EE
:10142000FAC0203E310508F074C0203C310508F0B8
:10143000E5C0283A310588F4253A310508F0E2C0C4
:101440002130310509F477C0C9010497813A91052B
:1014500008F471C030E020E06EC0C901885A9109DB
:101460004597C0F7283A310509F4FEC0293A3105FD
:1014700009F4FDC02A3A310509F4FCC02B3A3105C4
:1014800009F4FBC02C3A310509F4FAC02B3B3105B5
:1014900009F4F9C02C3B310509F4F8C02D3A3105A7
:1014A00009F4F7C0203B310509F4F6C02E3A3105A6
:1014B00009F4F5C02F3A310509F4F4C0213B310598
:1014C00009F4F3C0223B310509F4F2C0233B310596
:1014D00009F4F1C0243B310509F4F0C0253B310586
:1014E00009F4EFC0263B310509F4EEC0273B310576
:1014F00009F4EDC0283B310509F4ECC0293B310566
:1015000009F4EBC02A3B310509F4EAC020E034E4D9
:1015100012C0211590E2390780F42F3F310509F000
:1015200050F4283E310538F0C901805F91093065DB
:10153000409708F08FCFC9010895C9019F700E949C
:10154000FA099C01F8CF8115944508F041C0211596
:1015500083E5380708F06AC0211592E5390738F5A8
:10156000211541E5340708F05CC0211580E53807F6
:1015700008F454C0C90134E0969587953A95E1F78F
:101580008370422F46954695437090E2499FA00193
:101590001124582B822F837021E030E002C0220FEB
:1015A000331F8A95E2F7242B352B3C68C4CFC90141
:1015B0008370992741E050E002C0440F551F8A957F
:1015C000E2F72695269580E2289F90011124EBCF23
:1015D000211596E5390748F4922F882721153545BE
:1015E000C8F59C01246F306AA6CFC90190563F70A0
:1015F0008115904108F02ECF30629DCFC901805CEB
:1016000091099DCF253A310549F1263A310549F531
:1016100022E830E490CF3327306C8DCF3F70306AB2
:101620008ACF322F2227216F306A85CFC90183707C
:10163000992741E050E002C0440F551F8A95E2F718
:101640002695269580E2289F90011124242B352B86
:101650003A6871CF88279F719C01CECF21E830E492
:101660006ACF23E830E467CF22EE34E464CF29EE7A
:1016700034E461CF2AEE34E45ECF25EB34E45BCF73
:1016800026EB34E458CF23EB34E455CF24EB34E499
:1016900052CF27EB34E44FCF2CEC34E44CCF2DEC7D
:1016A00034E449CF23E835E446CF2AE835E443CF94
:1016B00022E935E440CF24E935E43DCF21E236E4A8
:1016C0003ACF23E236E437CF24E236E434CF25E2C2
:1016D00036E431CF26E236E42ECF27E236E42BCFB4
:1016E0002AE236E428CF803E910581F1C8F48133A7
:1016F000910509F462C048F48932910509F456C095
:101700008A32910509F460C0089589339105B9F0D2
:1017100082389105A1F08533910509F440C0089500
:10172000863E910561F138F4823E9105B1F0833E29
:101730009105E1F00895873E910551F108952091BA
:1017400086022370D9F080EE90E008952091860201
:1017500020FF14C089E390E008952091860222FFC3
:101760000DC024FD09C083EE90E00895209186020B
:1017700022FD31C024FF02C090E080E00895209156
:10178000860223FFFBCF24FDF7CF87EE90E008957C
:101790002091860223FFEECF86EE90E008952091FF
:1017A000860225FFEBCF89E290E008952091860222
:1017B00025FFE4CF85E390E008952091860226FF7F
:1017C000DDCF8AE290E008952091860226FFD6CFF1
:1017D00081E390E0089582EE90E0089508950F93DC
:1017E0001F93CF938C01FB018281811106C0C1E060
:1017F0008C2FCF911F910F910895C0915101C1116C
:1018000025C00531104799F70E94EE0B81E08093C7
:1018100051010E94AD1A9093500180934F01109294
:101820004401109246011092450110924801109215
:10183000470110924A011092490110924C011092F6
:101840004B0110924E0110924D01D2CF80914F0169
:10185000909150010E94B91A883C910540F6809100
:101860004401E82FF0E0EE0FFF1FEB5BFE4F11830A
:1018700000838F5F80934401C0E0BACF0C94980836
:101880000C94990885B7806885BF85B7806885BF47
:10189000A6E2B1E061E070E08D91E82FE295EF7093
:1018A000F0E041A18F709B0101C0220F8A95EAF7F9
:1018B000922F9095942391A382A1822B82A381E001
:1018C000AC32B80749F7A3E1B1E061E070E08D9177
:1018D000E82FE295EF70F0E041A18F709B0101C00D
:1018E000220F8A95EAF7922F9095942391A382A1D3
:1018F000822B82A381E0A632B80749F7EAE6F1E03D
:10190000A2E5B1E082E891E0119211921192119258
:101910001D921D921D921D928E179F07A9F70C9480
:10192000DD092F923F924F925F926F927F928F923A
:101930009F92AF92BF92CF92DF92EF92FF920F935E
:101940001F93CF93DF93CDB7DEB72B970FB6F894E5
:10195000DEBF0FBECDBF82E5282E81E0382E06E225
:1019600011E01E830D8338862F82C12CD12C760185
:10197000C394AF81B8858D909D90AD90BD90B88790
:10198000AF83FD011292129212921292FB87EA87A4
:10199000AD81BE818D91BE83AD83E82FE295EF705E
:1019A000F0E091A18F7001E010E002C0000F111F64
:1019B0008A95E2F71A830983802F892B81A382A15C
:1019C00000950987802382A310EA1A95F1F723E195
:1019D00031E03C832B8390E080E0AB81BC817D9043
:1019E000BC83AB83272D22952F7030E0D9019096D0
:1019F0005C90AA85BB854D915D916D917C91272D61
:101A00002F7001E010E002C0000F111F2A95E2F7CD
:101A10009801252109F07AC097018601082E04C09B
:101A2000000F111F221F331F0A94D2F7280139011A
:101A30004429552966297729AA85BB854D935D934D
:101A40006D937C93139701968331910531F681A1B3
:101A50001985182311A382A1B9818B2B82A3EA8552
:101A6000FB8580819181A281B38188169906AA069F
:101A7000BB0649F0F1E0F09382010E94AD1A909309
:101A80008401809383010F8118850A56114009F063
:101A900070CF809182018823E9F080918301909139
:101AA00084010E94B91A0697A8F02AE631E0F101F4
:101AB00081919191A191B1911F01F901819391932C
:101AC000A193B1939F01FAE62F16F1E03F0679F753
:101AD000109282010E94DF0981E02B960FB6F894E4
:101AE000DEBF0FBECDBFDF91CF911F910F91FF9051
:101AF000EF90DF90CF90BF90AF909F908F907F90AE
:101B00006F905F904F903F902F900895412C512CF3
:101B100032018ECFCF93DF9300D000D0CDB7DEB7A8
:101B200094E0899FF0011124E659FE4F8081918154
:101B3000A281B381BC01CD010F900F900F900F9047
:101B4000DF91CF910895089590938A018093890140
:101B50000895E0918901F0918A01309721F0019078
:101B6000F081E02D099480E00895E0918901F091E1
:101B70008A01309721F00280F381E02D09940895C5
:101B8000E0918901F0918A01309721F00480F5817C
:101B9000E02D09940895209187013091880128173C
:101BA000390771F09093880180938701E091890152
:101BB000F0918A01309721F00680F781E02D099499
:101BC000089520918501309186012817390771F019
:101BD0009093860180938501E0918901F0918A01BB
:101BE000309721F00084F185E02D0994089508953F
:101BF0000C94F70D0E94A41A0E94420C0C946D1BC9
:101C00004F925F926F927F929F92AF92BF92CF92CC
:101C1000DF92EF92FF920F931F93CF93DF9300D049
:101C200000D00F92CDB7DEB70E94910C2CE8A22E07
:101C300021E0B22E10E000E0902E802F0E948A0D4D
:101C40006B017C01F50141905190619071905F01B1
:101C50004C145D046E047F0409F475C08091550234
:101C600081FD0E94A30D90E080E04C245D246E2451
:101C70007F24B301A201082E04C07695679557957D
:101C800047950A94D2F740FF59C089839A82412C24
:101C9000512C3201439404C0440C551C661C771C23
:101CA0008A95D2F7C420D520E620F72081E0CD2800
:101CB000CE28CF2809F480E08B830E94AD1A816082
:101CC000782F9D838C8349815A816B818D810E94FD
:101CD000CF0E000F111F000F111FF801E457FE4F28
:101CE00080819181A281B38184259525A625B72580
:101CF00080839183A283B3830E941A1E0E94A90D40
:101D000090918B018917B1F10E94A90D80938B01ED
:101D10000F900F900F900F900F90DF91CF911F9128
:101D20000F91FF90EF90DF90CF90BF90AF909F907A
:101D30007F906F905F904F900C94E30901968331F0
:101D4000910509F096CF0F5F1F4F0630110509F07E
:101D500073CF8FEF89838A831B820E94AD1A8160C3
:101D6000782F9D838C8349815A816B818D810E945C
:101D7000CF0EC2CF0F900F900F900F900F90DF916A
:101D8000CF911F910F91FF90EF90DF90CF90BF9078
:101D9000AF909F907F906F905F904F900895CF93FA
:101DA000DF93CDB7DEB72B970FB6F894DEBF0FBE2B
:101DB000CDBF4F83588769877A878B871E8285E0DE
:101DC000FE013796DE01119601900D928A95E1F79A
:101DD00049815A816B817C818D819E812B960FB6C2
:101DE000F894DEBF0FBECDBFDF91CF910C944615A6
:101DF000882309F4D8C0823871F40E94A90D81FDAE
:101E0000D2C089E30E94EB180E94B51989E30E94B1
:101E100028190C94B519833859F40E94A90D80FD36
:101E2000C2C083E50E94EB180E94B51983E5EFCF8D
:101E3000843859F40E94A90D82FDB5C087E40E9440
:101E4000EB180E94B51987E4E2CF9CEF980F913A06
:101E500018F40E94EB18DDCF90E2980F983050F400
:101E6000877091E001C0990F8A95EAF7892F0E9447
:101E70006C19CFCF9BE5980F933070F4853A31F011
:101E8000863A39F083E890E00C94CB0D81E890E03D
:101E9000FBCF82E890E0F8CF98E5980F953108F0F5
:101EA00082C0883A09F440C0893A09F440C08A3AAD
:101EB00009F440C08B3A09F440C08C3A09F440C0A0
:101EC0008B3B09F440C08C3B09F440C08D3A09F4C7
:101ED00040C0803B09F440C08E3A09F440C08F3ABC
:101EE00009F440C0813B09F440C0823B09F440C082
:101EF000833B09F440C0843B09F440C0853B09F4AE
:101F000040C0863B09F440C0873B09F440C0883B91
:101F100009F440C0893B09F440C08A3B09F440C041
:101F200090E080E00C94E10D82EE90E0FBCF89EE32
:101F300090E0F8CF8AEE90E0F5CF85EB90E0F2CF1D
:101F400086EB90E0EFCF83EB90E0ECCF84EB90E07A
:101F5000E9CF87EB90E0E6CF8CEC90E0E3CF8DEC1F
:101F600090E0E0CF83E891E0DDCF8AE891E0DACF3E
:101F700082E991E0D7CF84E991E0D4CF81E292E089
:101F8000D1CF83E292E0CECF84E292E0CBCF85E264
:101F900092E0C8CF86E292E0C5CF87E292E0C2CF5E
:101FA0008AE292E0BFCF0895882309F44BC08238BB
:101FB00071F40E94A90D81FF45C089E30E94EB18CE
:101FC0000E94B51989E30E9428190C94B519833829
:101FD00059F40E94A90D80FF35C083E50E94EB18DB
:101FE0000E94B51983E5EFCF843859F40E94A90DFA
:101FF00082FF28C087E40E94EB180E94B51987E48D
:10200000E2CF9CEF980F913AF0F290E2980F98305F
:1020100050F4877091E001C0990F8A95EAF7892FF3
:102020000E947219D2CF9BE5980F933020F490E074
:1020300080E00C94CB0D885A853120F490E080E04C
:102040000C94E10D0895882321F00E946C190C94E2
:10205000B5190895882321F00E9472190C94B519BE
:1020600008958F929F92AF92BF92DF92EF92FF926C
:102070000F931F93CF93DF9300D000D00F92CDB773
:10208000DEB77C016D837983FC01058102950F70B9
:10209000128111110E948B190E94E418D82E8823F6
:1020A00071F01123A1F08D81805E883080F082E094
:1020B0000E94CE180E94E41891E0D82ED926E9811A
:1020C000E295EF70F0E0EB56F84D0C943127D12CEF
:1020D000F6CF09810F70F981F07F11F00295007F32
:1020E0001123B1F0002361F08D81805E883018F0FB
:1020F0002D81211109C0802F0E946C190E94B519F1
:102100008D810E94F80E15C0802F0E947D19F6CF98
:102110008D810E94D40F002361F08D81805E883014
:1021200018F03D81311129C0802F0E9472190E9440
:10213000B519DD2009F4D3C10E94C11880FDCFC1BB
:10214000F70112820E94BB180E940417C7010E9467
:1021500080120E94BB180F900F900F900F900F905D
:10216000DF91CF911F910F91FF90EF90DF90BF9083
:10217000AF909F908F900C942617802F0E94831908
:10218000D6CF49814F70B42E5981507F503219F00B
:10219000B29480EFB8228D81882369F0813029F1D3
:1021A000112369F1002359F0F701858180FFA8CF41
:1021B0008F70858304C0112361F0011104C08B2D41
:1021C0000E942310B6CF8B2D0130D1F70E949F19AA
:1021D000B0CF011106C00E94A2198B2D0E942A10B7
:1021E000A8CF013009F4A5CFF6CF112321F0063096
:1021F00008F09FCFE4CF053008F09BCFEECF00234F
:1022000061F38D810E94D40F94CF89818695869544
:10221000837069F0813009F08CCF8D819981937042
:10222000111102C090E080E00E94E10D82CF8D810B
:1022300099819370111102C090E080E00E94CB0D53
:1022400078CF8D81112329F00E94281D0E940F1E36
:1022500070CF0E94901DFACF8981837009F05FC012
:10226000111167CF2D81229526952770220F220FFD
:102270008D818F7090E0B0E0A0E04C015D01022EF6
:1022800004C0880C991CAA1CBB1C0A94D2F7FD81BF
:1022900060E070E0CB01F4FF0FC06FE070E080E021
:1022A00090E004C0660F771F881F991F2A95D2F708
:1022B0006095709580959095298126952695237037
:1022C0002D832230B1F0233019F19B01AC01282974
:1022D00039294A295B2929833A834B835C833D81D1
:1022E00069817A818B819C813130B1F00E94911695
:1022F00020CF9B01AC01282939294A295B29298350
:102300003A834B835C83CA01B9010E94BB1611CF8B
:102310000E949116C501B4010E9467160ACF8695E6
:10232000112311F089818170882309F402CF2D8156
:10233000229526952770220F220F8D818F7090E0B5
:10234000B0E0A0E04C015D01022E04C0880C991C95
:10235000AA1CBB1C0A94D2F73D8160E070E0CB015F
:1023600034FF0FC06FE070E080E090E004C0660FC3
:10237000771F881F991F2A95D2F7609570958095D1
:10238000909549814695469543704D834230B1F012
:10239000433019F19B01AC01282939294A295B29CD
:1023A00029833A834B835C833D8169817A818B8168
:1023B0009C813130B1F00E949717BBCE9B01AC01DC
:1023C000282939294A295B2929833A834B835C834D
:1023D000CA01B9010E94C117ACCE0E949717C5016E
:1023E000B4010E946D17A5CE3D81323F09F447C06C
:1023F00080F4303F79F1313FD9F1832F805E803115
:10240000D0F0112309F456C001117ACE89818F7161
:1024100033C04D81433FD1F1443F99F7112309F473
:102420003FC089818F7189830E94041763E089818D
:102430000E94C5187ECE5D815F705D8389818F713A
:10244000112321F00E9404178D81BACE0E94261715
:102450008D81C4CE112341F0053008F06ACE898108
:102460008F710E944B1765CE063008F062CEF7CF11
:1024700089818F71112339F00E9404175ACE898106
:102480008F711123C9F30E94261753CE112329F00F
:1024900089818F710E94EF164CCE0E94E51649CEBD
:1024A00081E00E94CE18023008F443CE82E00E9400
:1024B000CE183FCE0111A5CE89818F71E4CF49811D
:1024C0004F706D81C7010E9495080E94E01531CEC2
:1024D00049814F706D81C7010E94E5092ACE0F9096
:1024E0000F900F900F900F90DF91CF911F910F9150
:1024F000FF90EF90DF90BF90AF909F908F900895E6
:102500000F931F93CF93DF93EC018B819C81892BD9
:1025100029F08881998189238F3F29F4DF91CF9118
:102520001F910F910895CE010E94AE088823B1F348
:10253000688179818A810E9491188C010E94EB1731
:102540000E945C16B801CE01DF91CF911F910F91CF
:102550000C9431100E948B190E949C190E945E19E4
:102560000E94B5190E94001F0E940F1E90E080E09B
:102570000E94CB0D90E080E00C94E10D0E947A194E
:102580000C94AA120E948518282F892F82958F708B
:10259000903C80F48A30B0F4843020F4823090F49F
:1025A00080E008958630E1F781E0203E88F0213F09
:1025B000B9F70EC08C3011F08F3091F793FB88275C
:1025C00080F9089581E0203F39F018F4203E40F76B
:1025D0000895243F29F7FCCF0895CF93DF9300D0CF
:1025E00000D00F92CDB7DEB70F900F900F900F90E5
:1025F0000F90DF91CF910895CF93DF9300D000D05B
:1026000000D0CDB7DEB726960FB6F894DEBF0FBE6A
:10261000CDBFDF91CF9108951F93CF93DF93E091CA
:10262000A50116E08091A6018E1304C0DF91CF9121
:102630001F910895CE2FD0E01E9FF0011124E9557F
:10264000FE4F4081518162817381848195810E9416
:10265000FC12FE013196E770E5CF4091D701509111
:10266000D8016091D9017091DA018091DB019091DC
:10267000DC010C94FC121F93CF93DF938091DC015B
:10268000807FC1F48091D9018823A1F08091A501B8
:10269000C091A6016091D7017091D8014091DA01F3
:1026A0005091DB01D62FD723DA01A095B09516E023
:1026B000C81304C0DF91CF911F91089590E0411598
:1026C000510511F0DF3F31F401968770F1CF2A0FE9
:1026D0003B1F17C0189FF001199FF00D1124E955F9
:1026E000FE4F21812713F0CF20812613EDCF2281C9
:1026F0002111EACF238134812417350740F3241BAD
:10270000350B283C310500F72091DC012F7020614A
:102710002093DC0126E0289FF001299FF00D112471
:10272000E455FE4F80818F708061808387ED91E05A
:102730000E948012DF91CF911F910C940C139F92F5
:10274000AF92BF92CF92DF92EF92FF920F931F93BF
:10275000CF93DF93CDB7DEB72B970FB6F894DEBFDC
:102760000FBECDBF8C0185E0F801DE011796019008
:102770000D928A95E1F7D8014C9111965C911197D1
:102780001296EC9012978091DA019091DB010097FC
:1027900009F46BC12091D7013091D801632F6223D6
:1027A0006F3F09F462C11396CD90DC909090D901EF
:1027B000992009F4F8C0C816D90608F43FC0F601FC
:1027C000E81BF90BCF01FF24F394883C910508F036
:1027D000F12C87EDA82E81E0B82E8091DC01982F96
:1027E000907FFF2009F4B7C0911180C0FE2C3513F3
:1027F0002AC0241328C0E11026C08F708061809306
:10280000DC010E942D13C5010E9480128091DC0121
:10281000D80115968C938F2D2B960FB6F894DEBFAA
:102820000FBECDBFDF91CF911F910F91FF90EF9021
:10283000DF90CF90BF90AF909F9008958095909536
:102840008C0D9D1DC0CFCD2829F0842F85238F3F6F
:1028500009F019C180E0B82FB170DB2EE091A5011D
:102860002091A60136E080FD1CC0EE20A1F28091EF
:10287000DC0181608093DC01F12CCDCF8E2F90E0C4
:102880003E9FF0011124E955FE4F6181651306C09A
:102890006081641303C062816E11E7CFFC01319641
:1028A000E770E213EBCF4F8358878F8198850E94A2
:1028B0008518292F22952F70903260F0225F2F709B
:1028C000223078F49F7051F0F8019581907F31F4B7
:1028D000D12C0AC09F7011F08823D1F3805E88301C
:1028E000B8F3C8010E948012FD2C95CF351306C0A5
:1028F000241304C0D801EE2009F47BC04F8358870D
:102900008F8198850E94C212882309F4B8C0EE20F6
:1029100009F4B5C08091DC01803270F02091D701BC
:102920003091D8013A8329831B82DD82CC828E8349
:10293000CE0101960E94801286E0F801A7EDB1E079
:1029400001900D928A95E1F70E943B130E942D138E
:10295000FF24F39460CF911113C07C2DDB86CA86CF
:102960006E2D8B850E94ED1287ED91E00E94801202
:1029700086E0F50111928A95E9F70E942D134BCF5D
:102980003513BCCF2413BACFE110B8CFD8011596B8
:102990008C93C8010E94801286E0F50111928A95FD
:1029A000E9F7F92C38CFC816D90688F1B601681BAB
:1029B000790BCB01F12C883C910508F047C0FE2C27
:1029C000EE2009F45CC0351330C024132EC0809172
:1029D000DC0180FD21C0982F907FF1F0D801159681
:1029E0008C931597903F39F0982F907F905F8F7060
:1029F000892B15968C93C8010E94801286E0F801FD
:102A0000A7EDB1E001900D928A95E1F7B6CF8095E0
:102A100090958C0D9D1DCECF86E0F801A7EDB1E01D
:102A200001900D928A95E1F7F6CE4F8358878F81FA
:102A300098850E94C21281117FCF8091DC01816054
:102A40008093DC01C8010E948012E5CE7C2DDB86DC
:102A5000CA866E2D8B850E94ED1286E0E7EDF1E0CF
:102A6000DF011D928A95E9F788CFEE2041F04F8370
:102A700058878F8198850E94C21281115DCFC8014D
:102A80000E94801265CF81E08E25E5CE1F93CF9303
:102A9000DF93CDB7DEB72C970FB6F894DEBF0FBE2D
:102AA000CDBF4F83588769877A878B879C87CE01F4
:102AB00007960E949F13882369F08A859B85892B3E
:102AC00039F04F815885842F85238F3F09F071C0DD
:102AD00016E05FC086E0FE013796DE011196019098
:102AE0000D928A95E1F78A859B85892B89F38885E4
:102AF0009F8189238F3F61F32091A60130E0C901B6
:102B00000196877099274091A5014817190671F41D
:102B10000E94BE121092A6011092A50186E0E7ED78
:102B2000F1E0DF011D928A95E9F7D2CF96E0929FFE
:102B3000D001939FB00D1124A955BE4FFE013196CF
:102B400001900D929A95E1F78093A6010E940C13D3
:102B5000BFCF819FC001112489559E4F0E949F13B2
:102B60008823E9F0E091A5011E9FF0011124E955A9
:102B7000FE4F4081518162817381848195810E94E1
:102B8000FC128091A50190E00196877099278093AF
:102B9000A5018091A5019091A6018913DACF2C9609
:102BA0000FB6F894DEBF0FBECDBFDF91CF911F915E
:102BB000089569857A858B859C850E94FC1288CF53
:102BC000EF92FF920F931F93CF93DF938C01892B8A
:102BD00089F0F12CEE24E394E8012196F801849128
:102BE000843709F457C0A0F4823009F43EC048F499
:102BF0008130D1F0DF91CF911F910F91FF90EF9035
:102C000008959CEF980F9037A8F70E94F80E0AC01D
:102C1000853709F44CC09CE7980F903758F78F77A9
:102C20000E94D40F8E0116C00E5F1F4FFE018491CB
:102C300090E2980F983060F48770FE2D01C0FF0F6E
:102C40008A95EAF78F2F0E948E190E94B51902C04B
:102C50000E94F80E8F2D815008F4BECFEFE9FFE0FF
:102C60003197F1F700C00000F6CF0E5F1F4FFE0155
:102C7000849190E2980F983050F48770FE2D01C037
:102C8000FF0F8A95EAF78F2F0E949419DECF0E94DA
:102C9000D40FE0CF0E5F1F4FFE01C491C150D0F2A0
:102CA0008FE99FE00197F1F700C00000F7CF0E5FBA
:102CB0001F4FFE01F490CECF089560932C027093C5
:102CC0002D0280932E0290932F020C94AA12CF9380
:102CD000DF9300D000D0CDB7DEB769837A838B83D2
:102CE0009C8380912C0290912D02A0912E02B09194
:102CF0002F0229813A814B815C81822B932BA42B5B
:102D0000B52B80932C0290932D02A0932E02B093AA
:102D10002F020F900F900F900F90DF91CF910C9496
:102D2000AA12CF93DF9300D000D0CDB7DEB769836E
:102D30007A838B839C8380912C0290912D02A091A9
:102D40002E02B0912F0229813A814B815C8182232E
:102D50009323A423B52380932C0290932D02A09358
:102D60002E02B0932F020F900F900F900F90DF91D3
:102D7000CF910C94AA12CF93DF9300D000D0CDB79F
:102D8000DEB769837A838B839C8380912C02909138
:102D90002D02A0912E02B0912F0229813A814B8100
:102DA0005C8182279327A427B52780932C029093D8
:102DB0002D02A0932E02B0932F020F900F900F9030
:102DC0000F90DF91CF910C94AA12109228021092CA
:102DD000290210922A0210922B020C94AA1241E0AE
:102DE00050E060E070E004C0440F551F661F771F7D
:102DF0008A95D2F7409328025093290260932A02C1
:102E000070932B020C94AA12282F81E090E0A0E08E
:102E1000B0E004C0880F991FAA1FBB1F2A95D2F7E4
:102E2000409128025091290260912A0270912B0250
:102E3000842B952BA62BB72B8093280290932902E5
:102E4000A0932A02B0932B020C94AA1241E050E006
:102E500060E070E004C0440F551F661F771F8A951D
:102E6000D2F7409550956095709580912802909189
:102E70002902A0912A02B0912B0284239523A62334
:102E8000B7238093280290932902A0932A02B0933B
:102E90002B020C94AA12282F81E090E0A0E0B0E071
:102EA00004C0880F991FAA1FBB1F2A95D2F7409113
:102EB00028025091290260912A0270912B028427E6
:102EC0009527A627B7278093280290932902A093DD
:102ED0002A02B0932B020C94AA12CF93DF9300D056
:102EE00000D0CDB7DEB769837A838B839C838091D2
:102EF000280290912902A0912A02B0912B022981E7
:102F00003A814B815C81822B932BA42BB52B809330
:102F1000280290932902A0932A02B0932B020F90CB
:102F20000F900F900F90DF91CF910C94AA12CF9336
:102F3000DF9300D000D0CDB7DEB769837A838B836F
:102F40009C838091280290912902A0912A02B0913D
:102F50002B0229813A814B815C8182239323A42314
:102F6000B5238093280290932902A0932A02B0935C
:102F70002B020F900F900F900F90DF91CF910C9438
:102F8000AA12CF93DF9300D000D0CDB7DEB769830C
:102F90007A838B839C838091280290912902A0914F
:102FA0002A02B0912B0229813A814B815C818227D0
:102FB0009327A427B5278093280290932902A093F2
:102FC0002A02B0932B020F900F900F900F90DF9179
:102FD000CF910C94AA120895E82F23E1929FE00D5F
:102FE00011248E2F877041E001C0440F8A95EAF7C3
:102FF000E695E695E69585E0E89FF0011124E35219
:10300000FE4F30E020E070E05191DF011197CB01DD
:10301000022E02C0969587950A94E2F781708195F9
:103020008527842385278C932F5F3F4F25303105DB
:1030300059F70895E82F23E1929FE00D11249E2F68
:103040009770E695E695E69585E0E89FF0011124F6
:10305000E352FE4F50E040E080E0219130E0092E45
:1030600002C0369527950A94E2F721703327042E83
:1030700001C0220F0A94EAF7822B4F5F5F4F453061
:10308000510559F70895BF92CF92DF92EF92FF92C8
:103090000F931F93CF93DF938C01C0902802D090A1
:1030A0002902E0902A02F0902B0280912C0290914C
:1030B0002D02A0912E02B0912F02C82AD92AEA2A05
:1030C000FB2ACFE1D0E0BC2ED701C6010C2E04C0F4
:1030D000B695A795979587950A94D2F780FD0EC06F
:1030E000219788F7B12C8B2DDF91CF911F910F91F4
:1030F000FF90EF90DF90CF90BF900895B8018C2F94
:103100000E94020A019761F3EECFCF93DF93D82F8D
:10311000C92F0E9443186D2F7C2FDF91CF910C9403
:10312000020A1F93CF93DF93162FD72F9091A401FC
:10313000992339F0862F972FDF91CF911F910C940F
:103140008518882391F0862F972F0E944318C82F47
:10315000682F812F9D2F0E94EC17612F7D2F8C2FC0
:10316000DF91CF911F910C94020A862F972F0E9416
:103170001A18C82FF2CF80913002859585958595D4
:103180000895809130028770089598E0899F90019A
:103190001124622B609330020C940417909130023A
:1031A0008095892380933002282F277061F4282F7F
:1031B000082E000C330B9217130629F08595859580
:1031C00085950C942617089590913002977081E0B0
:1031D00009F480E00895909112019923E1F0909113
:1031E000860297FF18C0E82FE695E695E695EF3141
:1031F00039F12091000130910101E20FF32FF11D0F
:10320000877021E030E001C0220F8A95EAF78181C2
:10321000822B818308952091000130910101F901F1
:1032200032969FEF40E05191851751F09F3F19F47E
:10323000511101C0942F4F5F4E31A9F79F3F09F400
:103240000895290F311D97FD3A95F901828308955C
:1032500090911201992301F19091860297FF1CC071
:10326000E82FE695E695E695EF3139F120910001DA
:1032700030910101E20FF32FF11D877021E030E062
:10328000A90102C0440F551F8A95E2F7CA01809533
:10329000918189238183089520910001309101015A
:1032A000F9013296205E3F4F9191891303C0DF01EF
:1032B00011971C92E217F307B9F7089581E090E0A7
:1032C000E0910001F0910101E80FF91F10820196D1
:1032D00080329105A9F7089590915402982B90930C
:1032E00054020895982F90958091540289238093D9
:1032F0005402089510925402089590915302982B0D
:10330000909353020895982F9095809153028923AA
:10331000809353020895109253020895909152029F
:10332000982B909352020895982F90958091520275
:103330008923809352020895109252020895809337
:1033400031020895109231020895209100013091C8
:103350000101F9013196205E3F4F80E0919191117A
:103360008F5FE217F307D1F70895E0910001F09124
:103370000101809154028083E0910001F0910101EC
:10338000808190915302892B8083E0910001F0911C
:103390000101808190915202892B808390913102AA
:1033A000992361F0E0910001F09101018081892B66
:1033B00080830E94A5198111109231028091000131
:1033C000909101010C94B50D6DEE7EEF90E080E0E0
:1033D0000E946B2760E082E090E00E94592760E045
:1033E00083E090E00E94592760E084E090E00E9432
:1033F000592760E085E090E00C94592790E080E048
:103400000E9453279C0181E02D3E3E4F09F080E051
:10341000089582E090E00C944B27682F82E090E0C2
:103420000C94592783E090E00C944B27682F83E09D
:1034300090E00C94592784E090E00C944B27682F7F
:1034400084E090E00C94592780918C02843039F10B
:103450001092560288E190E020E40FB6F894A89507
:10346000809360000FBE2093600080E00E94E3091B
:1034700083B7817F846083BF83B7816083BF789483
:10348000889583B78E7F83BF0FB6F894A8958091F7
:103490006000886180936000109260000FBE089504
:1034A00008950895CF93DF9300D000D00F92CDB749
:1034B000DEB70E94501A0E94910C0E94511A1D8280
:1034C0008D810E948A0D672B682B692B71F48D8189
:1034D0008F5F8D838630A1F780E00F900F900F9063
:1034E0000F900F90DF91CF91089581E0F6CF0E9469
:1034F000BE120E94A90D0C94E3091F921FB61F92E1
:1035000011248F939F93AF93BF93809156028111A3
:1035100013C08091820290918302A0918402B091A5
:1035200085024196A11DB11D809382029093830272
:10353000A0938402B0938502BF91AF919F918F9128
:103540001F901FBE1F90189582E084BD93E095BD2B
:103550009AEF97BD80936E0008952FB7F8948091ED
:10356000820290918302A0918402B09185022FBFC4
:103570000895CF92DF92EF92FF929C014FB7F8949B
:103580008091820290918302A0918402B091850281
:103590004FBF6C017D01EE24FF24A90170E060E0C3
:1035A000C416D506E606F70638F0821B930BFF908B
:1035B000EF90DF90CF9008950197F7CF1F921FB63D
:1035C0001F9211248F939F93AF93BF938091820298
:1035D00090918302A0918402B09185020196A11D71
:1035E000B11D8093820290938302A0938402B093D2
:1035F0008502BF91AF919F918F911F901FBE1F9029
:1036000018950E94F422F8942FEF87EA91E6215052
:1036100080409040E1F700C0000087E090EBDC01C3
:103620008093950290939602A0939702B09398028C
:1036300088E19CE00FB6F894A895809360000FBED7
:1036400090936000FFCFAF92BF92CF92DF92EF9244
:10365000FF920F931F93CF93C0E0A82EB12C8C2F15
:103660000E948A0D6B017C0110E000E0D701C601C9
:10367000002E04C0B695A795979587950A94D2F722
:1036800080FF13C0602F7C2F80E00E94E609A816FF
:10369000B90659F481E0CF911F910F91FF90EF90FF
:1036A000DF90CF90BF90AF9008950F5F1F4F033111
:1036B0001105E1F6CF5FC63091F680E0ECCFCF93F5
:1036C000C82F8CE20E94231B882321F08C2FCF91DE
:1036D0000C94231B80E0CF910895CF93DF9300D00B
:1036E00000D0CDB7DEB70E94FE19811102C00E9442
:1036F000E41995E6998308C00E94910C8FE39CE938
:103700000197F1F700C00000A981A150A983A11180
:10371000F3CF89E20E945F1B811110C18AE20E94EF
:103720005F1B81110E94E41985E00E945F1B8111DB
:103730000E94011B0E94091A8093550287E00E9493
:103740005F1B882371F08BE10E945F1B882309F4C3
:10375000D1C090915502892F8D7F91FF8260809317
:103760005502809155020E940D1A0E941B1A90E08A
:10377000909387028093860280EE0E945F1B8823CD
:1037800041F090918602892F8E7F90FF8160809317
:10379000860289E30E945F1B882341F09091860294
:1037A000892F8D7F91FF82608093860282EE0E9436
:1037B0005F1B882341F090918602892F8B7F92FFB7
:1037C00084608093860286EE0E945F1B882341F00E
:1037D00090918602892F877F93FF8860809386026D
:1037E00083EE0E945F1B882341F090918602892F0F
:1037F0008F7E94FF80618093860285E30E945F1B29
:10380000882341F090918602892F8F7D95FF8062F9
:103810008093860281E30E945F1B882341F0909190
:103820008602892F8F7B96FF80648093860281E1D8
:103830000E945F1B882341F090918602892F97FB9D
:1038400087F9805880938602809186020E941F1A11
:1038500087E20E945F1B89838EE10E945F1B8823A1
:1038600019F0B981B260B9838FE10E945F1B882390
:1038700019F029812460298380E20E945F1B88233C
:1038800019F039813860398381E20E945F1B8823F7
:1038900019F049814061498382E20E945F1B8823BD
:1038A00019F059815062598383E20E945F1B88237B
:1038B00019F089818064898384E20E945F1B8823D8
:1038C000B1F199819068998389810E94161A398192
:1038D000232F30E050E040E029833A834B835C8320
:1038E000CA01B9010F900F900F900F90DF91CF9107
:1038F0000C945D168EE00E945F1B882339F0909136
:103900005502892F8B7F92FF846029CF80E10E942E
:103910005F1B90915502882329F0892F877F93FFA1
:1039200088601DCF892F8E7F90FF816018CFA9817D
:10393000A111CACF0E94121A282FCBCF0F900F903F
:103940000F900F90DF91CF9108958091590280FFE1
:1039500012C06091050185E0689FB0011124759542
:1039600067957595679560387105A8F561157105BE
:10397000A1F1862F089581FF09C06091050185E0BE
:10398000689FB001112475956795EDCF6091050191
:1039900082FD0AC080915A028823D1F090910401DF
:1039A00060910501891728F085E0689FB001112416
:1039B000DACF869FB001112485E0869F9001879F12
:1039C000300D1124692F70E0C9010E941D27CBCF53
:1039D00065E070E0CECF8FE7089581E00895809193
:1039E000590280FF0CC06091030170E075956795E6
:1039F000759567956115710549F1862F089581FFC9
:103A000006C06091030170E075956795F3CF6091F2
:103A1000030182FD0BC090915A029923A1F060919D
:103A2000020180910301961738F0682F70E060382A
:103A3000710500F38FE70895899FC001112470E09C
:103A40000E941D27F4CF61E070E0D7CF81E0089598
:103A5000803F31F40E94A51C819580935D020895FA
:103A6000813F19F40E94A51CF8CF823F31F40E94D7
:103A7000A51C819580935C020895833F19F40E94F0
:103A8000A51CF8CF893F29F40E94EF1C80935E02A9
:103A900008958A3F21F40E94EF1C8195F7CF8B3F58
:103AA00031F40E94EF1C819580935F0208958C3F52
:103AB00019F40E94EF1CF8CF843F31F480915B022F
:103AC000816080935B020895853F21F480915B02C1
:103AD0008260F7CF863F21F480915B028460F1CF52
:103AE000873F21F480915B028860EBCF883F21F40F
:103AF00080915B028061E5CF8D3F31F48091590266
:103B000081608093590208958E3F21F4809159027B
:103B10008260F7CF8F3FB9F7809159028460F1CF6F
:103B200090915C02803F41F480915D0287FD10928C
:103B30005D02992371F00895813F29F480915D021F
:103B40001816ACF3F6CF823F81F497FFF2CF1092B4
:103B50005C0280915D0290915E02892B90915F02E0
:103B6000892B49F710925A020895833F19F41916C8
:103B700074F3DFCF893F39F480915E021816CCF6DA
:103B800010925E02D6CF8A3F29F480915E0287FFB1
:103B9000D0CFF6CF8B3F39F480915F0287FFC9CF3A
:103BA00010925F02C6CF8C3F29F480915F021816F5
:103BB000BCF3BFCF843F31F480915B028E7F809352
:103BC0005B02B7CF853F21F480915B028D7FF7CFF9
:103BD000863F21F480915B028B7FF1CF873F21F4F8
:103BE00080915B02877FEBCF883F21F480915B025D
:103BF0008F7EE5CF8D3F31F4809159028E7F809387
:103C0000590297CF8E3F21F4809159028D7FF7CFD3
:103C10008F3F09F08ECF809159028B7FF0CF8BE5DB
:103C200092E00E94C00D0E94AD1A909358028093BA
:103C3000570208951F93CF93DF9300D000D000D098
:103C4000CDB7DEB780915702909158020E94B91A01
:103C5000AC0180915A022091060130E0811106C02A
:103C6000209107019AE0299F9001112442175307E0
:103C700088F020915C02A0915D02A98310915E0200
:103C8000B0915F02BE8321110FC09A2F912B9B2B05
:103C900009F0B2C026960FB6F894DEBF0FBECDBFB6
:103CA000DF91CF911F9108958F3F19F08F5F80931F
:103CB0005A02121624F40E94A51C80935C02809183
:103CC0005C0287FF05C00E94A51C819580935C0261
:103CD0002981121624F40E94A51C80935D02809114
:103CE0005D0287FF05C00E94A51C819580935D023F
:103CF00080915C02882309F455C030915D023D83B8
:103D0000332309F44FC0282F880F330B440B550B76
:103D100029833A834B835C83CA01B9010E9424261C
:103D200023E333E343E35FE369837A838B839C83F9
:103D300069817A818B819C810E94882669837A833C
:103D40008B839C8369817A818B819C810E94EC2585
:103D500060935C028D81082E000C990BAA0BBB0BA3
:103D600089839A83AB83BC83BC01CD010E94242646
:103D700023E333E343E35FE369837A838B839C83A9
:103D800069817A818B819C810E94882669837A83EC
:103D90008B839C8369817A818B819C810E94EC2535
:103DA00060935D02111624F40E94EF1C80935E0262
:103DB00080915E0287FF05C00E94EF1C8195809371
:103DC0005E029E81191624F40E94EF1C80935F020C
:103DD00080915F0287FF05C00E94EF1C8195809350
:103DE0005F0226960FB6F894DEBF0FBECDBFDF91FF
:103DF000CF911F910C940F1E8F3F09F057CF68CFC2
:103E000085E0EBE5F2E0DF011D928A95E9F710927B
:103E10005A02109259020895809180020895CF931A
:103E2000DF9300D00F92CDB7DEB720918C02243003
:103E300019F523E029838A839B832093E9008FEF80
:103E40009091E800815095FD06C095ED9A95F1F7A7
:103E500000008111F5CF8091E80085FF0DC050E092
:103E600040E063E070E0CE0101960E946C218091F9
:103E7000E8008E778093E8000F900F900F90DF910D
:103E8000CF910895CF93DF9300D00F92CDB7DEB7D7
:103E90009C0180918C02843031F582E08983205826
:103EA00031093B832A8383E08093E9008FEF90916F
:103EB000E800815095FD06C095ED9A95F1F7000058
:103EC0008111F5CF8091E80085FF0DC050E040E002
:103ED00063E070E0CE0101960E946C218091E800C1
:103EE0008E778093E8000F900F900F90DF91CF9125
:103EF000089520918C022430F1F422E02093E9000F
:103F00002FEF3091E800215035FD06C035ED3A9590
:103F1000F1F700002111F5CF2091E80025FF0BC03B
:103F200050E040E065E070E00E946C218091E80084
:103F30008E778093E8000895CF93DF93D82FC92F11
:103F400080918C028430F1F4909112019923E9F070
:103F50009091860297FF19C08093E9008FEF9091AE
:103F6000E800815095FD06C095E19A95F1F70000B3
:103F70008111F5CF8091E80050E040E060E270E010
:103F800085FD1AC0DF91CF91089581E08093E9000B
:103F90008FEF9091E800815095FD06C095ED9A95C0
:103FA000F1F700008111F5CF8091E80085FFEACF9D
:103FB00050E040E068E070E08D2F9C2F0E946C2163
:103FC0008091E8008E778093E80080E2ED2FFC2F4F
:103FD000A0E6B2E001900D928A95E1F7D3CF8091EF
:103FE0008B02811109C00E94F4220E94512380910A
:103FF000E20084608093E200089510928B0208959D
:10400000089508950C94771A42E061EC81E00E94D3
:10401000702242E061EC82E00E94702242E061EC9A
:1040200083E00E94702242E261EC84E00C947022F2
:1040300080918E02893089F148F4823009F494C06D
:10404000833009F44FC0813041F008958A3009F47B
:104050007BC08B3009F461C0089580918D02813A54
:1040600009F03FC08091E800877F8093E80080914D
:10407000910290919202892B61F460E280E692E0D5
:1040800070E00E94BB218091E8008B778093E8006C
:10409000089560E090E080E0F3CF80918D0281325E
:1040A00001F58091910290919202009711F003978F
:1040B000C1F48091E800877F8093E8008091E80058
:1040C00082FF0BC08091F100809380028091E80014
:1040D0008B778093E8000C94A42280918C0281114C
:1040E000EDCF089580918D02813AD9F780919102A8
:1040F00090919202892BA9F78091E800877F8093A5
:10410000E8008091E80080FFFCCF8091120180934D
:10411000F1008091E8008E77DCCF80918D028132B2
:1041200001F78091910290919202892BD1F68091B2
:10413000E800877F8093E8000E94A42280918F028C
:10414000809312010C94BE1280918D02813249F647
:104150008091E800877F8093E8000E94A4228091EC
:10416000900280938102089580918D02813A09F036
:10417000B8CF8091E800877F8093E8008091E800C5
:1041800080FFFCCF80918102C2CF84B7877F84BF3C
:104190000FB6F894A89580916000886180936000C4
:1041A000109260000FBE80E8809361001092610061
:1041B0000E94F80D0E94F4220E9451238091E20097
:1041C00084608093E20078940E94D1250E94FA0DC9
:1041D00088E091E00E94A40D80918C02853019F056
:1041E0000E94000EF9CF0E94241A80918A0288232F
:1041F00099F30E94521A882379F30E945621ECCF3A
:104200009C01DA01892F992783309105C1F068F468
:104210008130910509F445C0029761F48DE690E084
:104220002CE13FE02D933C93089581329105E1F01C
:10423000829739F190E080E030E020E0F3CFC901CF
:104240009927213059F08230910559F0E8E1FFE0DB
:10425000892B81F7849190E09F01E4CFE0E0FFE0BB
:10426000F9CFECEEFEE0F6CF643020F7E62FF0E079
:10427000EE0FFF1FE85CFE4F2081318189E090E066
:10428000D1CF6430B8F670E0FB01EE0FFF1FE05DA8
:10429000FE4F20813181645D7E4FFB01808190E083
:1042A000C1CF82E190E029E83FE0BCCF80E189BD49
:1042B00082E189BD09B400FEFDCF8091D8008F7DD9
:1042C0008093D8008091E00082608093E00080912C
:1042D000E00081FDFCCF0895AF92BF92CF92DF92B4
:1042E000FF920F931F93CF93DF936C01EB018A0131
:1042F0000E94C322F82E811123C00115110539F047
:10430000F80180819181C81BD90BC80ED91EB12C30
:10431000A12C2097A9F08091E80085FD22C0809112
:10432000E8008E778093E80001151105A1F0F801EF
:1043300080819181A80EB91EB182A08285E0F82EFD
:104340008F2DDF91CF911F910F91FF90DF90CF9034
:10435000BF90AF9008950E94C3228823D1F2F82E17
:10436000EFCFF60181916F018093F1002197FFEF6C
:10437000AF1ABF0ACECFFC01CB012091930230913E
:1043800094022617370790F0009729F42091E8004F
:104390002E772093E80040E0009751F4411108C0C7
:1043A0008091E80082FF31C080E00895C901F3CF19
:1043B00020918C022223A9F12530A9F12091E80057
:1043C00023FD2DC02091E80022FDEACF2091E800D6
:1043D00020FFE2CF3091F3002091F200009719F016
:1043E0002830310558F041E02830310509F040E02F
:1043F0002091E8002E772093E800CECF41914093A2
:10440000F10001972F5F3F4FE9CF80918C02882305
:1044100041F0853041F08091E80083FFC1CF81E019
:10442000089582E0089583E00895FC01CB01209176
:104430009302309194022617370790F0009729F4E1
:104440002091E8002E772093E80040E0009751F497
:10445000411108C08091E80082FF32C080E00895D9
:10446000C901F3CF20918C022223B1F12530B1F1A3
:104470002091E80023FD2EC02091E80022FDEACF24
:104480002091E80020FFE2CF3091F3002091F2006C
:10449000009719F02830310558F041E028303105F7
:1044A00009F040E02091E8002E772093E800CECF7D
:1044B00044914093F100319601972F5F3F4FE8CF31
:1044C00080918C02882341F0853041F08091E80092
:1044D00083FFC0CF81E0089582E0089583E00895CE
:1044E000982F973028F08F708093E90081E008952D
:1044F0009093E900242F762F50E0981731F07091B7
:10450000EC002091ED005091F00021FD02C09F5F72
:10451000E8CF3091EB003E7F3093EB003091ED001F
:104520003D7F3093ED003091EB0031603093EB0034
:104530007093EC002093ED005093F0002091EE007A
:1045400027FDE5CF80E0089580918D0287FF13C09D
:104550008091E80082FF06C08091E8008B7780930D
:10456000E80004C080918C028111F2CF08958091FF
:104570008C028823D9F38091E80080FFF8CF8091E6
:10458000E8008E77ECCF2091E4003091E50095E6CD
:10459000A9012091EC00822F817020FF06C080913C
:1045A000E80080FF06C080E008952091E80022FD29
:1045B0001AC080918C02882389F0853089F080911F
:1045C000EB0085FD0FC02091E4003091E50042171B
:1045D0005307F9F29150E1F684E0089582E00895DE
:1045E00083E0089581E008950E9462230E946A2377
:1045F000E0EEF0E0808181608083E8EDF0E0808192
:104600008F77808319BCA7EDB0E08C918E7F8C935F
:1046100080818F7E808310928B0208950F931F9369
:10462000CF93DF930E9462230E946A23C8EDD0E0FB
:1046300088818F77888388818068888388818F7D4F
:10464000888319BC10928C021092880210928A0200
:104650001092890200EE10E0F80180818B7F808348
:1046600088818160888342E060E080E00E9470225F
:10467000E1EEF0E080818E7F8083E2EEF0E08081E9
:1046800081608083808188608083F80180818E7F53
:104690008083888180618883DF91CF911F910F9102
:1046A0000895E8EDF0E080818F7E8083E7EDF0E013
:1046B00080818160808384E082BF81E080938B026F
:1046C0000C940E23E8EDF0E080818E7F80831092C1
:1046D000E20008951092DA001092E10008951F920E
:1046E0000F920FB60F9211242F933F934F935F9326
:1046F0006F937F938F939F93AF93BF93EF93FF93AA
:104700008091E10082FF0BC08091E20082FF07C030
:104710008091E1008B7F8093E1000E94D025809101
:10472000DA0080FF19C08091D80080FF15C0809109
:10473000DA008E7F8093DA008091D90080FF94C0E8
:1047400080E189BD82E189BD09B400FEFDCF81E031
:1047500080938C020E94EF1F8091E10080FF19C0BE
:104760008091E20080FF15C08091E2008E7F8093EF
:10477000E2008091E20080618093E2008091D800A5
:1047800080628093D80019BC85E080938C020E94DF
:1047900001208091E10084FF29C08091E20084FF24
:1047A00025C080E189BD82E189BD09B400FEFDCF4D
:1047B0008091D8008F7D8093D8008091E1008F7E1A
:1047C0008093E1008091E2008F7E8093E2008091EF
:1047D000E20081608093E20080918802882309F4DE
:1047E00049C084E080938C020E9402208091E10005
:1047F00083FF29C08091E20083FF25C08091E10002
:10480000877F8093E10082E080938C02109288027F
:104810008091E1008E7F8093E1008091E2008E7FA5
:104820008093E2008091E20080618093E20042E0A8
:1048300060E080E00E9470228091F00088608093A8
:10484000F0000E940020FF91EF91BF91AF919F91E6
:104850008F917F916F915F914F913F912F910F9029
:104860000FBE0F901F90189519BC10928C020E94D9
:10487000FD1F72CF8091E30087FD02C081E0B2CFBF
:1048800083E0B0CF1F920F920FB60F9211242F9397
:104890003F934F935F936F937F938F939F93AF93C8
:1048A000BF93CF93DF93EF93FF93D091E900DF7035
:1048B0008091EC00C82FC17080FDC0E81092E90023
:1048C0008091F000877F8093F00078940E94862486
:1048D0001092E9008091F00088608093F000CD2B69
:1048E000CF70C093E900FF91EF91DF91CF91BF911D
:1048F000AF919F918F917F916F915F914F913F9178
:104900002F910F900FBE0F901F9018951F93CF936C
:10491000DF93CDB7DEB7AA970FB6F894DEBF0FBE10
:10492000CDBF8DE892E0FC0101962091F10020833B
:1049300022E085399207B9F70E9418208091E8009B
:1049400083FF16C180918D0290918E029A3008F0FB
:104950000FC1E92FF0E0EB55F84D0C94312780386A
:1049600081F0823809F004C1809191028F708093A8
:10497000E9008091EB0085FB882780F91092E9001F
:1049800006C08091890290918A0291118260909173
:10499000E800977F9093E8008093F1001092F10077
:1049A0008091E8008E77E0C0882309F4CEC0823081
:1049B00009F0DEC080918F028111D1C080919102F7
:1049C0008F7009F4D5C08093E9002091EB0020FF9F
:1049D000C6C0933031F48091EB0080628093EB008D
:1049E000BEC09091EB0090619093EB0021E030E02D
:1049F00001C0220F8A95EAF72093EA001092EA009C
:104A00008091EB008860EACF8111B2C010918F02D3
:104A10001F778091E3008078812B8093E300809161
:104A2000E800877F8093E8000E94A4228091E8003C
:104A300080FFFCCF8091E30080688093E30082E0F8
:104A4000111183E080938C0293C08058823008F06B
:104A50008FC080918F02909190028C3D23E092074D
:104A6000A1F583E08A838AE289834FB7F894DE0157
:104A7000139620E03EE051E2E32FF0E05093570020
:104A8000E49120FF03C0E295EF703F5FEF708E2F3F
:104A900090E0EA30C0F0C7968D939D932F5F24314C
:104AA00059F74FBF8091E800877F8093E8006AE262
:104AB00070E0CE0101960E94BB218091E8008B77C7
:104AC0008093E80055C0C096E7CFAE014F5F5F4FBF
:104AD000609191020E940021BC01892B09F448C019
:104AE0008091E800877F8093E80089819A810E9405
:104AF0001522E3CF8038E1F58091E800877F80932D
:104B0000E800809188028093F1004ACF811130C083
:104B100090918F02923060F58091E800877F8093BA
:104B2000E800909388020E94A42280918802882342
:104B300011F084E005C08091E30087FDFACF81E0A9
:104B400080938C020E94042013C080918F028130D8
:104B500079F481E0933009F080E080938A0210922A
:104B6000E9008091E800877F8093E8000E94A422FA
:104B70008091E80083FF0AC08091E800877F8093DE
:104B8000E8008091EB0080628093EB00AA960FB65C
:104B9000F894DEBF0FBECDBFDF91CF911F91089576
:104BA0000895CF9380918C028823A1F0C091E900F1
:104BB000CF709091EC00892F817090FD80E8C82B18
:104BC0001092E9008091E80083FD0E948624CF7056
:104BD000C093E900CF9108950E94F3256894B11124
:104BE0000C94822608950E94672688F09F5798F0BB
:104BF000B92F9927B751B0F0E1F0660F771F881FE2
:104C0000991F1AF0BA95C9F714C0B13091F00E94FB
:104C10008126B1E008950C948126672F782F88278C
:104C2000B85F39F0B93FCCF3869577956795B39522
:104C3000D9F73EF490958095709561957F4F8F4F91
:104C40009F4F0895E89409C097FB3EF49095809596
:104C5000709561957F4F8F4F9F4F9923A9F0F92F42
:104C600096E9BB279395F695879577956795B795C0
:104C7000F111F8CFFAF4BB0F11F460FF1BC06F5FA6
:104C80007F4F8F4F9F4F16C0882311F096E911C0B8
:104C9000772321F09EE8872F762F05C0662371F0D9
:104CA00096E8862F70E060E02AF09A95660F771FED
:104CB000881FDAF7880F9695879597F9089557FD1D
:104CC0009058440F551F59F05F3F71F04795880F7A
:104CD00097FB991F61F09F3F79F087950895121611
:104CE00013061406551FF2CF4695F1DF08C01616BD
:104CF00017061806991FF1CF86957105610508946E
:104D00000895E894BB2766277727CB0197F9089584
:104D10000E949B260C940C270E94FE2638F00E94CD
:104D2000052720F0952311F00C94F5260C94FB2612
:104D300011240C9482260E945F2670F3959FC1F384
:104D4000950F50E0551F629FF001729FBB27F00D39
:104D5000B11D639FAA27F00DB11DAA1F649F66278E
:104D6000B00DA11D661F829F2227B00DA11D621FDD
:104D7000739FB00DA11D621F839FA00D611D221F97
:104D8000749F3327A00D611D231F849F600D211D7B
:104D9000822F762F6A2F11249F5750409AF0F1F0FE
:104DA00088234AF0EE0FFF1FBB1F661F771F881F67
:104DB00091505040A9F79E3F510580F00C94F52684
:104DC0000C9482265F3FE4F3983ED4F38695779562
:104DD0006795B795F795E7959F5FC1F7FE2B880F0D
:104DE000911D9695879597F9089597F99F6780E8A3
:104DF00070E060E008959FEF80EC089500240A942D
:104E00001616170618060906089500240A941216A5
:104E10001306140605060895092E0394000C11F4D8
:104E2000882352F0BB0F40F4BF2B11F460FF04C085
:104E30006F5F7F4F8F4F9F4F089597FB072E16F49C
:104E4000009407D077FD09D00E94372707FC05D0D2
:104E50003EF4909581959F4F0895709561957F4F91
:104E60000895EE0FFF1F0590F491E02D0994AA1B01
:104E7000BB1B51E107C0AA1FBB1FA617B70710F045
:104E8000A61BB70B881F991F5A95A9F78095909577
:104E9000BC01CD010895F999FECF92BD81BDF89A6C
:104EA000992780B50895A8E1B0E042E050E00C9465
:104EB0007327262FF999FECF92BD81BDF89A0197ED
:104EC00000B4021639F01FBA20BD0FB6F894FA9A52
:104ED000F99A0FBE08950196272F0E945A270C9425
:104EE0005927DC01CB01FC01F999FECF06C0F2BDC8
:104EF000E1BDF89A319600B40D9241505040B8F798
:104F00000895F894FFCF4E095A095E0962096609AF
:104F10006A096E09720976097A097E098209860989
:104F20008A098E09920996099A0969106910C110B7
:104F3000C11005112111991099102C119910F4111B
:104F4000F4115F12991099106812AF24D424B82577
:0E4F5000D424B82504252525B8257A258625E4
:104F5E0032022808140A321E0C1F9C1F791F421F92
:104F6E000F1F0136376061626364656667909192C8
:104F7E009394959697C0303132333435404D36394F
:104F8E0057100A10D40F9B0F2E0F470F600F790F7B
:00000001FF
